{
  "contractName": "Store",
  "abi": [
    {
      "inputs": [],
      "payable": false,
      "stateMutability": "nonpayable",
      "type": "constructor"
    },
    {
      "anonymous": false,
      "inputs": [
        {
          "indexed": false,
          "internalType": "address",
          "name": "",
          "type": "address"
        },
        {
          "indexed": false,
          "internalType": "uint256",
          "name": "",
          "type": "uint256"
        },
        {
          "indexed": false,
          "internalType": "uint256",
          "name": "",
          "type": "uint256"
        }
      ],
      "name": "OrderPlaced",
      "type": "event"
    },
    {
      "anonymous": false,
      "inputs": [
        {
          "components": [
            {
              "internalType": "uint256",
              "name": "id",
              "type": "uint256"
            },
            {
              "internalType": "uint256",
              "name": "amount",
              "type": "uint256"
            },
            {
              "internalType": "string",
              "name": "shippingDetails",
              "type": "string"
            },
            {
              "internalType": "uint256",
              "name": "orderProductCount",
              "type": "uint256"
            }
          ],
          "indexed": false,
          "internalType": "struct Store.Order[]",
          "name": "",
          "type": "tuple[]"
        }
      ],
      "name": "OrdersReturned",
      "type": "event"
    },
    {
      "anonymous": false,
      "inputs": [
        {
          "indexed": false,
          "internalType": "uint256",
          "name": "",
          "type": "uint256"
        },
        {
          "indexed": false,
          "internalType": "string",
          "name": "",
          "type": "string"
        }
      ],
      "name": "ProductAdded",
      "type": "event"
    },
    {
      "anonymous": false,
      "inputs": [
        {
          "indexed": false,
          "internalType": "uint256",
          "name": "",
          "type": "uint256"
        },
        {
          "indexed": false,
          "internalType": "string",
          "name": "",
          "type": "string"
        }
      ],
      "name": "ProductReturned",
      "type": "event"
    },
    {
      "anonymous": false,
      "inputs": [
        {
          "components": [
            {
              "internalType": "uint256",
              "name": "id",
              "type": "uint256"
            },
            {
              "internalType": "string",
              "name": "name",
              "type": "string"
            },
            {
              "internalType": "uint256",
              "name": "price",
              "type": "uint256"
            },
            {
              "internalType": "uint256",
              "name": "quantity",
              "type": "uint256"
            },
            {
              "internalType": "string",
              "name": "description",
              "type": "string"
            },
            {
              "internalType": "string",
              "name": "imgUrl",
              "type": "string"
            },
            {
              "internalType": "uint256",
              "name": "reviewCount",
              "type": "uint256"
            }
          ],
          "indexed": false,
          "internalType": "struct Store.Product[]",
          "name": "",
          "type": "tuple[]"
        }
      ],
      "name": "ProductsReturned",
      "type": "event"
    },
    {
      "anonymous": false,
      "inputs": [
        {
          "indexed": false,
          "internalType": "uint256",
          "name": "",
          "type": "uint256"
        },
        {
          "indexed": false,
          "internalType": "string",
          "name": "",
          "type": "string"
        },
        {
          "indexed": false,
          "internalType": "uint256",
          "name": "",
          "type": "uint256"
        }
      ],
      "name": "ReviewAdded",
      "type": "event"
    },
    {
      "anonymous": false,
      "inputs": [
        {
          "components": [
            {
              "internalType": "address",
              "name": "user",
              "type": "address"
            },
            {
              "internalType": "uint256",
              "name": "rating",
              "type": "uint256"
            },
            {
              "internalType": "string",
              "name": "review",
              "type": "string"
            }
          ],
          "indexed": false,
          "internalType": "struct Store.Review[]",
          "name": "",
          "type": "tuple[]"
        }
      ],
      "name": "ReviewsReturned",
      "type": "event"
    },
    {
      "anonymous": false,
      "inputs": [
        {
          "indexed": false,
          "internalType": "address",
          "name": "",
          "type": "address"
        },
        {
          "indexed": false,
          "internalType": "string",
          "name": "",
          "type": "string"
        }
      ],
      "name": "UserAdded",
      "type": "event"
    },
    {
      "constant": false,
      "inputs": [
        {
          "internalType": "string",
          "name": "_email",
          "type": "string"
        },
        {
          "internalType": "string",
          "name": "_name",
          "type": "string"
        },
        {
          "internalType": "string",
          "name": "_password",
          "type": "string"
        },
        {
          "internalType": "string",
          "name": "_billingAdd",
          "type": "string"
        }
      ],
      "name": "addUser",
      "outputs": [],
      "payable": false,
      "stateMutability": "nonpayable",
      "type": "function"
    },
    {
      "constant": true,
      "inputs": [],
      "name": "getUser",
      "outputs": [
        {
          "components": [
            {
              "internalType": "address",
              "name": "id",
              "type": "address"
            },
            {
              "internalType": "bytes32",
              "name": "email",
              "type": "bytes32"
            },
            {
              "internalType": "string",
              "name": "name",
              "type": "string"
            },
            {
              "internalType": "string",
              "name": "billingAdd",
              "type": "string"
            },
            {
              "internalType": "bytes32",
              "name": "password",
              "type": "bytes32"
            },
            {
              "internalType": "uint256",
              "name": "orderCount",
              "type": "uint256"
            },
            {
              "internalType": "bool",
              "name": "isUser",
              "type": "bool"
            },
            {
              "internalType": "uint256",
              "name": "balance",
              "type": "uint256"
            }
          ],
          "internalType": "struct Store.User",
          "name": "",
          "type": "tuple"
        }
      ],
      "payable": false,
      "stateMutability": "view",
      "type": "function"
    },
    {
      "constant": true,
      "inputs": [
        {
          "internalType": "string",
          "name": "_email",
          "type": "string"
        },
        {
          "internalType": "string",
          "name": "_password",
          "type": "string"
        }
      ],
      "name": "authenticateUser",
      "outputs": [
        {
          "internalType": "bool",
          "name": "",
          "type": "bool"
        }
      ],
      "payable": false,
      "stateMutability": "view",
      "type": "function"
    },
    {
      "constant": false,
      "inputs": [
        {
          "internalType": "string",
          "name": "_name",
          "type": "string"
        },
        {
          "internalType": "string",
          "name": "_description",
          "type": "string"
        },
        {
          "internalType": "string",
          "name": "_imgUrl",
          "type": "string"
        },
        {
          "internalType": "uint256",
          "name": "_price",
          "type": "uint256"
        },
        {
          "internalType": "uint256",
          "name": "_quantity",
          "type": "uint256"
        }
      ],
      "name": "addProduct",
      "outputs": [],
      "payable": false,
      "stateMutability": "nonpayable",
      "type": "function"
    },
    {
      "constant": true,
      "inputs": [
        {
          "internalType": "uint256",
          "name": "prodID",
          "type": "uint256"
        }
      ],
      "name": "getProduct",
      "outputs": [
        {
          "components": [
            {
              "internalType": "uint256",
              "name": "id",
              "type": "uint256"
            },
            {
              "internalType": "string",
              "name": "name",
              "type": "string"
            },
            {
              "internalType": "uint256",
              "name": "price",
              "type": "uint256"
            },
            {
              "internalType": "uint256",
              "name": "quantity",
              "type": "uint256"
            },
            {
              "internalType": "string",
              "name": "description",
              "type": "string"
            },
            {
              "internalType": "string",
              "name": "imgUrl",
              "type": "string"
            },
            {
              "internalType": "uint256",
              "name": "reviewCount",
              "type": "uint256"
            }
          ],
          "internalType": "struct Store.Product",
          "name": "",
          "type": "tuple"
        }
      ],
      "payable": false,
      "stateMutability": "view",
      "type": "function"
    },
    {
      "constant": true,
      "inputs": [],
      "name": "getProductList",
      "outputs": [
        {
          "components": [
            {
              "internalType": "uint256",
              "name": "id",
              "type": "uint256"
            },
            {
              "internalType": "string",
              "name": "name",
              "type": "string"
            },
            {
              "internalType": "uint256",
              "name": "price",
              "type": "uint256"
            },
            {
              "internalType": "uint256",
              "name": "quantity",
              "type": "uint256"
            },
            {
              "internalType": "string",
              "name": "description",
              "type": "string"
            },
            {
              "internalType": "string",
              "name": "imgUrl",
              "type": "string"
            },
            {
              "internalType": "uint256",
              "name": "reviewCount",
              "type": "uint256"
            }
          ],
          "internalType": "struct Store.Product[]",
          "name": "",
          "type": "tuple[]"
        }
      ],
      "payable": false,
      "stateMutability": "view",
      "type": "function"
    },
    {
      "constant": false,
      "inputs": [
        {
          "internalType": "uint256",
          "name": "_productId",
          "type": "uint256"
        },
        {
          "internalType": "uint256",
          "name": "_rating",
          "type": "uint256"
        },
        {
          "internalType": "string",
          "name": "_review",
          "type": "string"
        }
      ],
      "name": "addReview",
      "outputs": [],
      "payable": false,
      "stateMutability": "nonpayable",
      "type": "function"
    },
    {
      "constant": true,
      "inputs": [
        {
          "internalType": "uint256",
          "name": "_productId",
          "type": "uint256"
        }
      ],
      "name": "getReviews",
      "outputs": [
        {
          "components": [
            {
              "internalType": "address",
              "name": "user",
              "type": "address"
            },
            {
              "internalType": "uint256",
              "name": "rating",
              "type": "uint256"
            },
            {
              "internalType": "string",
              "name": "review",
              "type": "string"
            }
          ],
          "internalType": "struct Store.Review[]",
          "name": "",
          "type": "tuple[]"
        }
      ],
      "payable": false,
      "stateMutability": "view",
      "type": "function"
    },
    {
      "constant": false,
      "inputs": [
        {
          "components": [
            {
              "internalType": "uint256",
              "name": "id",
              "type": "uint256"
            },
            {
              "internalType": "uint256",
              "name": "quantity",
              "type": "uint256"
            }
          ],
          "internalType": "struct Store.OrderProduct[]",
          "name": "_products",
          "type": "tuple[]"
        },
        {
          "internalType": "string",
          "name": "_shippingDet",
          "type": "string"
        }
      ],
      "name": "addOrder",
      "outputs": [],
      "payable": true,
      "stateMutability": "payable",
      "type": "function"
    },
    {
      "constant": true,
      "inputs": [],
      "name": "getOrders",
      "outputs": [
        {
          "components": [
            {
              "internalType": "uint256",
              "name": "id",
              "type": "uint256"
            },
            {
              "internalType": "uint256",
              "name": "amount",
              "type": "uint256"
            },
            {
              "internalType": "string",
              "name": "shippingDetails",
              "type": "string"
            },
            {
              "internalType": "uint256",
              "name": "orderProductCount",
              "type": "uint256"
            }
          ],
          "internalType": "struct Store.Order[]",
          "name": "",
          "type": "tuple[]"
        }
      ],
      "payable": false,
      "stateMutability": "view",
      "type": "function"
    },
    {
      "constant": true,
      "inputs": [
        {
          "internalType": "uint256",
          "name": "_orderID",
          "type": "uint256"
        }
      ],
      "name": "getOrder",
      "outputs": [
        {
          "components": [
            {
              "internalType": "uint256",
              "name": "id",
              "type": "uint256"
            },
            {
              "internalType": "uint256",
              "name": "amount",
              "type": "uint256"
            },
            {
              "internalType": "string",
              "name": "shippingDetails",
              "type": "string"
            },
            {
              "internalType": "uint256",
              "name": "orderProductCount",
              "type": "uint256"
            }
          ],
          "internalType": "struct Store.Order",
          "name": "",
          "type": "tuple"
        }
      ],
      "payable": false,
      "stateMutability": "view",
      "type": "function"
    }
  ],
  "bytecode": "0x608060405260006005553480156200001657600080fd5b506200007a60405180606001604052806025815260200162003b876025913960405180610100016040528060c3815260200162003ac460c391396040518060600160405280603a815260200162003bac603a9139600160146200017e60201b60201c565b620000f96040518060400160405280601a81526020017f6950686f6e652031312050726f203235364742204d656d6f727900000000000081525060405180610100016040528060c3815260200162003ac460c391396040518060800160405280604f815260200162003a75604f9139600260146200017e60201b60201c565b620001786040518060400160405280601a81526020017f43616e6e6f6e20454f53203830442044534c522043616d65726100000000000081525060405180610100016040528060c3815260200162003ac460c391396040518060800160405280604e815260200162003be6604e9139600460146200017e60201b60201c565b62000449565b6040518060e0016040528060055481526020018681526020018381526020018281526020018581526020018481526020016000815250600360006005548152602001908152602001600020600082015181600001556020820151816001019080519060200190620001f1929190620002a7565b506040820151816002015560608201518160030155608082015181600401908051906020019062000224929190620002a7565b5060a082015181600501908051906020019062000243929190620002a7565b5060c082015181600601559050506005600081548092919060010191905055507f259101de1f87b04b9ee0332ce5e3cc508014004bf283424aead6cd8692f5cf986005548660405162000298929190620003a8565b60405180910390a15050505050565b828054600181600116156101000203166002900490600052602060002090601f016020900481019282601f10620002ea57805160ff19168380011785556200031b565b828001600101855582156200031b579182015b828111156200031a578251825591602001919060010190620002fd565b5b5090506200032a91906200032e565b5090565b6200035391905b808211156200034f57600081600090555060010162000335565b5090565b90565b60006200036382620003dc565b6200036f8185620003e7565b93506200038181856020860162000402565b6200038c8162000438565b840191505092915050565b620003a281620003f8565b82525050565b6000604082019050620003bf600083018562000397565b8181036020830152620003d3818462000356565b90509392505050565b600081519050919050565b600082825260208201905092915050565b6000819050919050565b60005b838110156200042257808201518184015260208101905062000405565b8381111562000432576000848401525b50505050565b6000601f19601f8301169050919050565b61361c80620004596000396000f3fe60806040526004361061009c5760003560e01c8063524a046e11610064578063524a046e14610186578063832880e7146101af5780639d4a2255146101da578063b9db15b414610217578063d09ef24114610254578063d8ea04db146102915761009c565b806301cda3ac146100a15780632e2dc43e146100ca57806334d2c0ad146100f55780633e9e27aa14610120578063516a543514610149575b600080fd5b3480156100ad57600080fd5b506100c860048036036100c391908101906124f5565b6102ad565b005b3480156100d657600080fd5b506100df610528565b6040516100ec91906130aa565b60405180910390f35b34801561010157600080fd5b5061010a61073f565b60405161011791906130cc565b60405180910390f35b34801561012c57600080fd5b50610147600480360361014291908101906126a0565b6109e9565b005b34801561015557600080fd5b50610170600480360361016b9190810190612489565b610ccb565b60405161017d9190613110565b60405180910390f35b34801561019257600080fd5b506101ad60048036036101a891908101906125b8565b610e41565b005b3480156101bb57600080fd5b506101c4610f62565b6040516101d191906132e1565b60405180910390f35b3480156101e657600080fd5b5061020160048036036101fc9190810190612677565b611196565b60405161020e91906130ee565b60405180910390f35b34801561022357600080fd5b5061023e60048036036102399190810190612677565b6113c2565b60405161024b91906132bf565b60405180910390f35b34801561026057600080fd5b5061027b60048036036102769190810190612677565b61164f565b604051610288919061329d565b60405180910390f35b6102ab60048036036102a6919081019061241d565b611779565b005b6000803373ffffffffffffffffffffffffffffffffffffffff1673ffffffffffffffffffffffffffffffffffffffff16815260200190815260200160002060060160009054906101000a900460ff161561033c576040517f08c379a0000000000000000000000000000000000000000000000000000000008152600401610333906131bd565b60405180910390fd5b6040518061010001604052803373ffffffffffffffffffffffffffffffffffffffff16815260200185604051602001610375919061312b565b60405160208183030381529060405280519060200120815260200184815260200182815260200183336040516020016103af92919061314d565b6040516020818303038152906040528051906020012081526020016000815260200160011515815260200160008152506000803373ffffffffffffffffffffffffffffffffffffffff1673ffffffffffffffffffffffffffffffffffffffff16815260200190815260200160002060008201518160000160006101000a81548173ffffffffffffffffffffffffffffffffffffffff021916908373ffffffffffffffffffffffffffffffffffffffff16021790555060208201518160010155604082015181600201908051906020019061048a9291906120dc565b5060608201518160030190805190602001906104a79291906120dc565b506080820151816004015560a0820151816005015560c08201518160060160006101000a81548160ff02191690831515021790555060e082015181600701559050507fa56e21173460286ea98fc3defc7671b9b8e2ff0c6acea8d6ed30b343724e23fa338560405161051a929190613043565b60405180910390a150505050565b6060806000803373ffffffffffffffffffffffffffffffffffffffff1673ffffffffffffffffffffffffffffffffffffffff168152602001908152602001600020600501546040519080825280602002602001820160405280156105a657816020015b61059361215c565b81526020019060019003908161058b5790505b50905060008090505b6000803373ffffffffffffffffffffffffffffffffffffffff1673ffffffffffffffffffffffffffffffffffffffff1681526020019081526020016000206005015481101561073757600160003373ffffffffffffffffffffffffffffffffffffffff1673ffffffffffffffffffffffffffffffffffffffff16815260200190815260200160002060008281526020019081526020016000206040518060800160405290816000820154815260200160018201548152602001600282018054600181600116156101000203166002900480601f0160208091040260200160405190810160405280929190818152602001828054600181600116156101000203166002900480156107005780601f106106d557610100808354040283529160200191610700565b820191906000526020600020905b8154815290600101906020018083116106e357829003601f168201915b5050505050815260200160038201548152505082828151811061071f57fe5b602002602001018190525080806001019150506105af565b508091505090565b60608060055460405190808252806020026020018201604052801561077e57816020015b61076b612184565b8152602001906001900390816107635790505b50905060008090505b6005548110156109e157600360008281526020019081526020016000206040518060e001604052908160008201548152602001600182018054600181600116156101000203166002900480601f0160208091040260200160405190810160405280929190818152602001828054600181600116156101000203166002900480156108525780601f1061082757610100808354040283529160200191610852565b820191906000526020600020905b81548152906001019060200180831161083557829003601f168201915b505050505081526020016002820154815260200160038201548152602001600482018054600181600116156101000203166002900480601f0160208091040260200160405190810160405280929190818152602001828054600181600116156101000203166002900480156109085780601f106108dd57610100808354040283529160200191610908565b820191906000526020600020905b8154815290600101906020018083116108eb57829003601f168201915b50505050508152602001600582018054600181600116156101000203166002900480601f0160208091040260200160405190810160405280929190818152602001828054600181600116156101000203166002900480156109aa5780601f1061097f576101008083540402835291602001916109aa565b820191906000526020600020905b81548152906001019060200180831161098d57829003601f168201915b505050505081526020016006820154815250508282815181106109c957fe5b60200260200101819052508080600101915050610787565b508091505090565b6000803373ffffffffffffffffffffffffffffffffffffffff1673ffffffffffffffffffffffffffffffffffffffff16815260200190815260200160002060060160009054906101000a900460ff16610a77576040517f08c379a0000000000000000000000000000000000000000000000000000000008152600401610a6e9061319d565b60405180910390fd5b600082118015610a875750600682105b610ac6576040517f08c379a0000000000000000000000000000000000000000000000000000000008152600401610abd906131fd565b60405180910390fd5b60008310158015610ad957506005548311155b610b18576040517f08c379a0000000000000000000000000000000000000000000000000000000008152600401610b0f9061321d565b60405180910390fd5b82600360008581526020019081526020016000206000015414610b70576040517f08c379a0000000000000000000000000000000000000000000000000000000008152600401610b679061321d565b60405180910390fd5b60405180606001604052803373ffffffffffffffffffffffffffffffffffffffff168152602001838152602001828152506004600085815260200190815260200160002060006003600087815260200190815260200160002060060154815260200190815260200160002060008201518160000160006101000a81548173ffffffffffffffffffffffffffffffffffffffff021916908373ffffffffffffffffffffffffffffffffffffffff160217905550602082015181600101556040820151816002019080519060200190610c489291906120dc565b5090505060036000848152602001908152602001600020600601600081548092919060010191905055507f416797b5e1d4d016e87e3ea4c0a23f381f77ce882c6730010c07bd2b1608e2bb60016003600086815260200190815260200160002060060154038284604051610cbe93929190613333565b60405180910390a1505050565b60008060003373ffffffffffffffffffffffffffffffffffffffff1673ffffffffffffffffffffffffffffffffffffffff16815260200190815260200160002060060160009054906101000a900460ff16610d5b576040517f08c379a0000000000000000000000000000000000000000000000000000000008152600401610d529061319d565b60405180910390fd5b82604051602001610d6c919061312b565b604051602081830303815290604052805190602001206000803373ffffffffffffffffffffffffffffffffffffffff1673ffffffffffffffffffffffffffffffffffffffff16815260200190815260200160002060010154148015610e3957508133604051602001610ddf92919061314d565b604051602081830303815290604052805190602001206000803373ffffffffffffffffffffffffffffffffffffffff1673ffffffffffffffffffffffffffffffffffffffff16815260200190815260200160002060040154145b905092915050565b6040518060e0016040528060055481526020018681526020018381526020018281526020018581526020018481526020016000815250600360006005548152602001908152602001600020600082015181600001556020820151816001019080519060200190610eb29291906120dc565b5060408201518160020155606082015181600301556080820151816004019080519060200190610ee39291906120dc565b5060a0820151816005019080519060200190610f009291906120dc565b5060c082015181600601559050506005600081548092919060010191905055507f259101de1f87b04b9ee0332ce5e3cc508014004bf283424aead6cd8692f5cf9860055486604051610f53929190613303565b60405180910390a15050505050565b610f6a6121c1565b6000803373ffffffffffffffffffffffffffffffffffffffff1673ffffffffffffffffffffffffffffffffffffffff168152602001908152602001600020604051806101000160405290816000820160009054906101000a900473ffffffffffffffffffffffffffffffffffffffff1673ffffffffffffffffffffffffffffffffffffffff1673ffffffffffffffffffffffffffffffffffffffff16815260200160018201548152602001600282018054600181600116156101000203166002900480601f0160208091040260200160405190810160405280929190818152602001828054600181600116156101000203166002900480156110ad5780601f10611082576101008083540402835291602001916110ad565b820191906000526020600020905b81548152906001019060200180831161109057829003601f168201915b50505050508152602001600382018054600181600116156101000203166002900480601f01602080910402602001604051908101604052809291908181526020018280546001816001161561010002031660029004801561114f5780601f106111245761010080835404028352916020019161114f565b820191906000526020600020905b81548152906001019060200180831161113257829003601f168201915b5050505050815260200160048201548152602001600582015481526020016006820160009054906101000a900460ff16151515158152602001600782015481525050905090565b6060600082101580156111ab57506005548211155b6111ea576040517f08c379a00000000000000000000000000000000000000000000000000000000081526004016111e19061317d565b60405180910390fd5b6060600360008481526020019081526020016000206006015460405190808252806020026020018201604052801561123c57816020015b611229612224565b8152602001906001900390816112215790505b50905060008090505b60036000858152602001908152602001600020600601548110156113b8576004600085815260200190815260200160002060008281526020019081526020016000206040518060600160405290816000820160009054906101000a900473ffffffffffffffffffffffffffffffffffffffff1673ffffffffffffffffffffffffffffffffffffffff1673ffffffffffffffffffffffffffffffffffffffff16815260200160018201548152602001600282018054600181600116156101000203166002900480601f01602080910402602001604051908101604052809291908181526020018280546001816001161561010002031660029004801561138b5780601f106113605761010080835404028352916020019161138b565b820191906000526020600020905b81548152906001019060200180831161136e57829003601f168201915b5050505050815250508282815181106113a057fe5b60200260200101819052508080600101915050611245565b5080915050919050565b6113ca61225b565b600082101580156113dd57506005548211155b61141c576040517f08c379a00000000000000000000000000000000000000000000000000000000081526004016114139061323d565b60405180910390fd5b600360008381526020019081526020016000206040518060e001604052908160008201548152602001600182018054600181600116156101000203166002900480601f0160208091040260200160405190810160405280929190818152602001828054600181600116156101000203166002900480156114dd5780601f106114b2576101008083540402835291602001916114dd565b820191906000526020600020905b8154815290600101906020018083116114c057829003601f168201915b505050505081526020016002820154815260200160038201548152602001600482018054600181600116156101000203166002900480601f0160208091040260200160405190810160405280929190818152602001828054600181600116156101000203166002900480156115935780601f1061156857610100808354040283529160200191611593565b820191906000526020600020905b81548152906001019060200180831161157657829003601f168201915b50505050508152602001600582018054600181600116156101000203166002900480601f0160208091040260200160405190810160405280929190818152602001828054600181600116156101000203166002900480156116355780601f1061160a57610100808354040283529160200191611635565b820191906000526020600020905b81548152906001019060200180831161161857829003601f168201915b505050505081526020016006820154815250509050919050565b611657612298565b600160003373ffffffffffffffffffffffffffffffffffffffff1673ffffffffffffffffffffffffffffffffffffffff16815260200190815260200160002060008381526020019081526020016000206040518060800160405290816000820154815260200160018201548152602001600282018054600181600116156101000203166002900480601f01602080910402602001604051908101604052809291908181526020018280546001816001161561010002031660029004801561175f5780601f106117345761010080835404028352916020019161175f565b820191906000526020600020905b81548152906001019060200180831161174257829003601f168201915b505050505081526020016003820154815250509050919050565b6000803373ffffffffffffffffffffffffffffffffffffffff1673ffffffffffffffffffffffffffffffffffffffff16815260200190815260200160002060060160009054906101000a900460ff16611807576040517f08c379a00000000000000000000000000000000000000000000000000000000081526004016117fe9061319d565b60405180910390fd5b60008090505b82518110156119f357600083828151811061182457fe5b60200260200101516000015110158015611857575060055483828151811061184857fe5b60200260200101516000015111155b611896576040517f08c379a000000000000000000000000000000000000000000000000000000000815260040161188d906131dd565b60405180910390fd5b8281815181106118a257fe5b602002602001015160000151600360008584815181106118be57fe5b6020026020010151600001518152602001908152602001600020600001541461191c576040517f08c379a0000000000000000000000000000000000000000000000000000000008152600401611913906131dd565b60405180910390fd5b60006003600085848151811061192e57fe5b6020026020010151600001518152602001908152602001600020600301541161198c576040517f08c379a00000000000000000000000000000000000000000000000000000000081526004016119839061325d565b60405180910390fd5b600083828151811061199a57fe5b602002602001015160200151116119e6576040517f08c379a00000000000000000000000000000000000000000000000000000000081526004016119dd9061327d565b60405180910390fd5b808060010191505061180d565b506000670de0b6b3a76400009050600080905060008090505b8451811015611ed657848181518110611a2157fe5b60200260200101516020015160036000878481518110611a3d57fe5b6020026020010151600001518152602001908152602001600020600301600082825403925050819055508260036000878481518110611a7857fe5b60200260200101516000015181526020019081526020016000206002015402820191506040518060e00160405280868381518110611ab257fe5b602002602001015160000151815260200160036000888581518110611ad357fe5b60200260200101516000015181526020019081526020016000206001018054600181600116156101000203166002900480601f016020809104026020016040519081016040528092919081815260200182805460018160011615610100020316600290048015611b845780601f10611b5957610100808354040283529160200191611b84565b820191906000526020600020905b815481529060010190602001808311611b6757829003601f168201915b5050505050815260200160036000888581518110611b9e57fe5b6020026020010151600001518152602001908152602001600020600201548152602001868381518110611bcd57fe5b602002602001015160200151815260200160036000888581518110611bee57fe5b60200260200101516000015181526020019081526020016000206004018054600181600116156101000203166002900480601f016020809104026020016040519081016040528092919081815260200182805460018160011615610100020316600290048015611c9f5780601f10611c7457610100808354040283529160200191611c9f565b820191906000526020600020905b815481529060010190602001808311611c8257829003601f168201915b5050505050815260200160036000888581518110611cb957fe5b60200260200101516000015181526020019081526020016000206005018054600181600116156101000203166002900480601f016020809104026020016040519081016040528092919081815260200182805460018160011615610100020316600290048015611d6a5780601f10611d3f57610100808354040283529160200191611d6a565b820191906000526020600020905b815481529060010190602001808311611d4d57829003601f168201915b5050505050815260200160036000888581518110611d8457fe5b602002602001015160000151815260200190815260200160002060060154815250600260003373ffffffffffffffffffffffffffffffffffffffff1673ffffffffffffffffffffffffffffffffffffffff16815260200190815260200160002060008060003373ffffffffffffffffffffffffffffffffffffffff1673ffffffffffffffffffffffffffffffffffffffff1681526020019081526020016000206005015481526020019081526020016000206000838152602001908152602001600020600082015181600001556020820151816001019080519060200190611e6d9291906120dc565b5060408201518160020155606082015181600301556080820151816004019080519060200190611e9e9291906120dc565b5060a0820151816005019080519060200190611ebb9291906120dc565b5060c082015181600601559050508080600101915050611a0c565b5060405180608001604052806000803373ffffffffffffffffffffffffffffffffffffffff1673ffffffffffffffffffffffffffffffffffffffff1681526020019081526020016000206005015481526020018281526020018481526020018551815250600160003373ffffffffffffffffffffffffffffffffffffffff1673ffffffffffffffffffffffffffffffffffffffff16815260200190815260200160002060008060003373ffffffffffffffffffffffffffffffffffffffff1673ffffffffffffffffffffffffffffffffffffffff16815260200190815260200160002060050154815260200190815260200160002060008201518160000155602082015181600101556040820151816002019080519060200190611ffb9291906120dc565b50606082015181600301559050507f03f23a9b67af957c8605376a4f515b53f102d4ad7f4da099bd1aff8e3ee13fec336000803373ffffffffffffffffffffffffffffffffffffffff1673ffffffffffffffffffffffffffffffffffffffff168152602001908152602001600020600501544760405161207d93929190613073565b60405180910390a16000803373ffffffffffffffffffffffffffffffffffffffff1673ffffffffffffffffffffffffffffffffffffffff1681526020019081526020016000206005016000815480929190600101919050555050505050565b828054600181600116156101000203166002900490600052602060002090601f016020900481019282601f1061211d57805160ff191683800117855561214b565b8280016001018555821561214b579182015b8281111561214a57825182559160200191906001019061212f565b5b50905061215891906122c0565b5090565b6040518060800160405280600081526020016000815260200160608152602001600081525090565b6040518060e00160405280600081526020016060815260200160008152602001600081526020016060815260200160608152602001600081525090565b604051806101000160405280600073ffffffffffffffffffffffffffffffffffffffff1681526020016000801916815260200160608152602001606081526020016000801916815260200160008152602001600015158152602001600081525090565b6040518060600160405280600073ffffffffffffffffffffffffffffffffffffffff16815260200160008152602001606081525090565b6040518060e00160405280600081526020016060815260200160008152602001600081526020016060815260200160608152602001600081525090565b6040518060800160405280600081526020016000815260200160608152602001600081525090565b6122e291905b808211156122de5760008160009055506001016122c6565b5090565b90565b600082601f8301126122f657600080fd5b81356123096123048261339e565b613371565b9150818183526020840193506020810190508385604084028201111561232e57600080fd5b60005b8381101561235e578161234488826123bc565b845260208401935060408301925050600181019050612331565b5050505092915050565b600082601f83011261237957600080fd5b813561238c612387826133c6565b613371565b915080825260208301602083018583830111156123a857600080fd5b6123b383828461356f565b50505092915050565b6000604082840312156123ce57600080fd5b6123d86040613371565b905060006123e884828501612408565b60008301525060206123fc84828501612408565b60208301525092915050565b600081359050612417816135c2565b92915050565b6000806040838503121561243057600080fd5b600083013567ffffffffffffffff81111561244a57600080fd5b612456858286016122e5565b925050602083013567ffffffffffffffff81111561247357600080fd5b61247f85828601612368565b9150509250929050565b6000806040838503121561249c57600080fd5b600083013567ffffffffffffffff8111156124b657600080fd5b6124c285828601612368565b925050602083013567ffffffffffffffff8111156124df57600080fd5b6124eb85828601612368565b9150509250929050565b6000806000806080858703121561250b57600080fd5b600085013567ffffffffffffffff81111561252557600080fd5b61253187828801612368565b945050602085013567ffffffffffffffff81111561254e57600080fd5b61255a87828801612368565b935050604085013567ffffffffffffffff81111561257757600080fd5b61258387828801612368565b925050606085013567ffffffffffffffff8111156125a057600080fd5b6125ac87828801612368565b91505092959194509250565b600080600080600060a086880312156125d057600080fd5b600086013567ffffffffffffffff8111156125ea57600080fd5b6125f688828901612368565b955050602086013567ffffffffffffffff81111561261357600080fd5b61261f88828901612368565b945050604086013567ffffffffffffffff81111561263c57600080fd5b61264888828901612368565b935050606061265988828901612408565b925050608061266a88828901612408565b9150509295509295909350565b60006020828403121561268957600080fd5b600061269784828501612408565b91505092915050565b6000806000606084860312156126b557600080fd5b60006126c386828701612408565b93505060206126d486828701612408565b925050604084013567ffffffffffffffff8111156126f157600080fd5b6126fd86828701612368565b9150509250925092565b60006127138383612d67565b905092915050565b60006127278383612e74565b905092915050565b600061273b8383612f1e565b905092915050565b61274c81613539565b82525050565b61275b816134e7565b82525050565b61276a816134d5565b82525050565b600061277b82613422565b6127858185613480565b935083602082028501612797856133f2565b8060005b858110156127d357848403895281516127b48582612707565b94506127bf83613459565b925060208a0199505060018101905061279b565b50829750879550505050505092915050565b60006127f08261342d565b6127fa8185613491565b93508360208202850161280c85613402565b8060005b858110156128485784840389528151612829858261271b565b945061283483613466565b925060208a01995050600181019050612810565b50829750879550505050505092915050565b600061286582613438565b61286f81856134a2565b93508360208202850161288185613412565b8060005b858110156128bd578484038952815161289e858261272f565b94506128a983613473565b925060208a01995050600181019050612885565b50829750879550505050505092915050565b6128d8816134f9565b82525050565b6128e7816134f9565b82525050565b6128f681613505565b82525050565b60006129078261344e565b61291181856134c4565b935061292181856020860161357e565b61292a816135b1565b840191505092915050565b600061294082613443565b61294a81856134b3565b935061295a81856020860161357e565b612963816135b1565b840191505092915050565b600061297b602a836134c4565b91507f53746f72653a2067657452657669657773202d2050726f6475637420646f657360008301527f206e6f74206578697374000000000000000000000000000000000000000000006020830152604082019050919050565b60006129e1602d836134c4565b91507f53746f72653a2061757468656e74696361746555736572202d2055736572206460008301527f6f6573206e6f74206578697374000000000000000000000000000000000000006020830152604082019050919050565b6000612a476024836134c4565b91507f53746f72653a2061646455736572202d205573657220616c726561647920657860008301527f69737473000000000000000000000000000000000000000000000000000000006020830152604082019050919050565b6000612aad6028836134c4565b91507f53746f72653a206164644f72646572202d2050726f6475637420646f6573206e60008301527f6f742065786973740000000000000000000000000000000000000000000000006020830152604082019050919050565b6000612b136033836134c4565b91507f53746f72653a20616464526576696577202d20526174696e672073686f756c6460008301527f206265206265747765656e203120616e642035000000000000000000000000006020830152604082019050919050565b6000612b796029836134c4565b91507f53746f72653a20616464526576696577202d2050726f6475637420646f65732060008301527f6e6f7420657869737400000000000000000000000000000000000000000000006020830152604082019050919050565b6000612bdf6026836134c4565b91507f53746f72653a2067657450726f64756374202d20496e76616c69642070726f6460008301527f75637420494400000000000000000000000000000000000000000000000000006020830152604082019050919050565b6000612c456026836134c4565b91507f53746f72653a206164644f72646572202d2050726f64756374206f7574206f6660008301527f2073746f636b00000000000000000000000000000000000000000000000000006020830152604082019050919050565b6000612cab6022836134c4565b91507f53746f72653a206164644f72646572202d20496e76616c6964207175616e746960008301527f74790000000000000000000000000000000000000000000000000000000000006020830152604082019050919050565b6000608083016000830151612d1c6000860182613025565b506020830151612d2f6020860182613025565b5060408301518482036040860152612d478282612935565b9150506060830151612d5c6060860182613025565b508091505092915050565b6000608083016000830151612d7f6000860182613025565b506020830151612d926020860182613025565b5060408301518482036040860152612daa8282612935565b9150506060830151612dbf6060860182613025565b508091505092915050565b600060e083016000830151612de26000860182613025565b5060208301518482036020860152612dfa8282612935565b9150506040830151612e0f6040860182613025565b506060830151612e226060860182613025565b5060808301518482036080860152612e3a8282612935565b91505060a083015184820360a0860152612e548282612935565b91505060c0830151612e6960c0860182613025565b508091505092915050565b600060e083016000830151612e8c6000860182613025565b5060208301518482036020860152612ea48282612935565b9150506040830151612eb96040860182613025565b506060830151612ecc6060860182613025565b5060808301518482036080860152612ee48282612935565b91505060a083015184820360a0860152612efe8282612935565b91505060c0830151612f1360c0860182613025565b508091505092915050565b6000606083016000830151612f366000860182612761565b506020830151612f496020860182613025565b5060408301518482036040860152612f618282612935565b9150508091505092915050565b600061010083016000830151612f876000860182612761565b506020830151612f9a60208601826128ed565b5060408301518482036040860152612fb28282612935565b91505060608301518482036060860152612fcc8282612935565b9150506080830151612fe160808601826128ed565b5060a0830151612ff460a0860182613025565b5060c083015161300760c08601826128cf565b5060e083015161301a60e0860182613025565b508091505092915050565b61302e8161352f565b82525050565b61303d8161352f565b82525050565b60006040820190506130586000830185612743565b818103602083015261306a81846128fc565b90509392505050565b60006060820190506130886000830186612743565b6130956020830185613034565b6130a26040830184613034565b949350505050565b600060208201905081810360008301526130c48184612770565b905092915050565b600060208201905081810360008301526130e681846127e5565b905092915050565b60006020820190508181036000830152613108818461285a565b905092915050565b600060208201905061312560008301846128de565b92915050565b6000602082019050818103600083015261314581846128fc565b905092915050565b6000604082019050818103600083015261316781856128fc565b90506131766020830184612752565b9392505050565b600060208201905081810360008301526131968161296e565b9050919050565b600060208201905081810360008301526131b6816129d4565b9050919050565b600060208201905081810360008301526131d681612a3a565b9050919050565b600060208201905081810360008301526131f681612aa0565b9050919050565b6000602082019050818103600083015261321681612b06565b9050919050565b6000602082019050818103600083015261323681612b6c565b9050919050565b6000602082019050818103600083015261325681612bd2565b9050919050565b6000602082019050818103600083015261327681612c38565b9050919050565b6000602082019050818103600083015261329681612c9e565b9050919050565b600060208201905081810360008301526132b78184612d04565b905092915050565b600060208201905081810360008301526132d98184612dca565b905092915050565b600060208201905081810360008301526132fb8184612f6e565b905092915050565b60006040820190506133186000830185613034565b818103602083015261332a81846128fc565b90509392505050565b60006060820190506133486000830186613034565b818103602083015261335a81856128fc565b90506133696040830184613034565b949350505050565b6000604051905081810181811067ffffffffffffffff8211171561339457600080fd5b8060405250919050565b600067ffffffffffffffff8211156133b557600080fd5b602082029050602081019050919050565b600067ffffffffffffffff8211156133dd57600080fd5b601f19601f8301169050602081019050919050565b6000819050602082019050919050565b6000819050602082019050919050565b6000819050602082019050919050565b600081519050919050565b600081519050919050565b600081519050919050565b600081519050919050565b600081519050919050565b6000602082019050919050565b6000602082019050919050565b6000602082019050919050565b600082825260208201905092915050565b600082825260208201905092915050565b600082825260208201905092915050565b600082825260208201905092915050565b600082825260208201905092915050565b60006134e08261350f565b9050919050565b60006134f28261350f565b9050919050565b60008115159050919050565b6000819050919050565b600073ffffffffffffffffffffffffffffffffffffffff82169050919050565b6000819050919050565b60006135448261354b565b9050919050565b60006135568261355d565b9050919050565b60006135688261350f565b9050919050565b82818337600083830152505050565b60005b8381101561359c578082015181840152602081019050613581565b838111156135ab576000848401525b50505050565b6000601f19601f8301169050919050565b6135cb8161352f565b81146135d657600080fd5b5056fea365627a7a72315820fe119038fb88460f70c85864a91e11d67b6841ed2ccb8ddd24b1589b28c792626c6578706572696d656e74616cf564736f6c6343000510004068747470733a2f2f696d616765732e70726963656f79652e706b2f6170706c652d6970686f6e652d78692d70616b697374616e2d70726963656f79652d6f696b316f2d353030783530302e77656270426c7565746f6f746820746563686e6f6c6f6779206c65747320796f7520636f6e6e656374206974207769746820636f6d70617469626c65206465766963657320776972656c6573736c7920486967682d7175616c6974792041414320617564696f206f666665727320696d6d657273697665206c697374656e696e6720657870657269656e6365204275696c742d696e206d6963726f70686f6e6520616c6c6f777320796f7520746f2074616b652063616c6c73207768696c6520776f726b696e67416972706f647320576972656c65737320426c7565746f6f7468204865616470686f6e657368747470733a2f2f726562656c746563682e636f6d2f77702d636f6e74656e742f75706c6f6164732f323032312f31302f4d4d4537332e6a706768747470733a2f2f686173686d6970686f746f732e636f6d2f77702d636f6e74656e742f75706c6f6164732f323031392f30382f43616e6f6e2d323530442d44534c522d43616d6572612e6a7067",
  "source": "// SPDX-License-Identifier: MIT\r\npragma solidity >=0.4.22 <=0.8.17;\r\npragma experimental ABIEncoderV2;\r\n\r\ncontract Store {\r\n    struct User {\r\n        address id;\r\n        bytes32 email;\r\n        string name;\r\n        string billingAdd;\r\n        bytes32 password;\r\n        uint256 orderCount;\r\n        bool isUser;\r\n        uint256 balance;\r\n    }\r\n\r\n    struct Product {\r\n        uint256 id;\r\n        string name;\r\n        uint256 price;\r\n        uint256 quantity;\r\n        string description;\r\n        string imgUrl;\r\n        uint256 reviewCount;\r\n    }\r\n\r\n    struct Review {\r\n        address user;\r\n        uint256 rating;\r\n        string review;\r\n    }\r\n\r\n    struct Order {\r\n        uint256 id;\r\n        uint256 amount;\r\n        string shippingDetails;\r\n        uint256 orderProductCount;\r\n    }\r\n\r\n    struct OrderProduct {\r\n        uint256 id;\r\n        uint256 quantity;\r\n    }\r\n\r\n    // Mappings for handling user functionalities\r\n    mapping(address => User) userList;\r\n    mapping(address => mapping(uint256 => Order)) orderList;\r\n    mapping(address => mapping(uint256 => mapping(uint256 => Product))) orderProductList;\r\n\r\n    // Mappings for handling product functionalities\r\n    mapping(uint256 => Product) productList;\r\n    mapping(uint256 => mapping(uint256 => Review)) reviewList;\r\n    // mapping(address => uint256) balances;\r\n\r\n    uint256 productCount = 0;\r\n\r\n    event UserAdded(address, string);\r\n    event ProductAdded(uint256, string);\r\n    event ReviewAdded(uint256, string, uint256);\r\n    event OrderPlaced(address, uint256, uint256);\r\n    event ProductReturned(uint256, string);\r\n    event ProductsReturned(Product[]);\r\n    event OrdersReturned(Order[]);\r\n    event ReviewsReturned(Review[]);\r\n\r\n    constructor() public {\r\n        addProduct(\r\n            \"Airpods Wireless Bluetooth Headphones\",\r\n            \"Bluetooth technology lets you connect it with compatible devices wirelessly High-quality AAC audio offers immersive listening experience Built-in microphone allows you to take calls while working\",\r\n            \"https://rebeltech.com/wp-content/uploads/2021/10/MME73.jpg\",\r\n            1,\r\n            20\r\n        );\r\n        addProduct(\r\n            \"iPhone 11 Pro 256GB Memory\",\r\n            \"Bluetooth technology lets you connect it with compatible devices wirelessly High-quality AAC audio offers immersive listening experience Built-in microphone allows you to take calls while working\",\r\n            \"https://images.priceoye.pk/apple-iphone-xi-pakistan-priceoye-oik1o-500x500.webp\",\r\n            2,\r\n            20\r\n        );\r\n        addProduct(\r\n            \"Cannon EOS 80D DSLR Camera\",\r\n            \"Bluetooth technology lets you connect it with compatible devices wirelessly High-quality AAC audio offers immersive listening experience Built-in microphone allows you to take calls while working\",\r\n            \"https://hashmiphotos.com/wp-content/uploads/2019/08/Canon-250D-DSLR-Camera.jpg\",\r\n            4,\r\n            20\r\n        );\r\n    }\r\n\r\n    function addUser(\r\n        string memory _email,\r\n        string memory _name,\r\n        string memory _password,\r\n        string memory _billingAdd\r\n    ) public {\r\n        require(\r\n            !userList[msg.sender].isUser,\r\n            \"Store: addUser - User already exists\"\r\n        );\r\n\r\n        userList[msg.sender] = User(\r\n            msg.sender,\r\n            keccak256(abi.encode(_email)),\r\n            _name,\r\n            _billingAdd,\r\n            keccak256(abi.encode(_password, msg.sender)),\r\n            0,\r\n            true,\r\n            0\r\n        );\r\n\r\n        emit UserAdded(msg.sender, _email);\r\n    }\r\n\r\n    function getUser() public view returns (User memory) {\r\n        return userList[msg.sender];\r\n    }\r\n\r\n    function authenticateUser(string memory _email, string memory _password)\r\n        public\r\n        view\r\n        returns (bool)\r\n    {\r\n        require(\r\n            userList[msg.sender].isUser,\r\n            \"Store: authenticateUser - User does not exist\"\r\n        );\r\n\r\n        return (userList[msg.sender].email == keccak256(abi.encode(_email)) &&\r\n            userList[msg.sender].password ==\r\n            keccak256(abi.encode(_password, msg.sender)));\r\n    }\r\n\r\n    function addProduct(\r\n        string memory _name,\r\n        string memory _description,\r\n        string memory _imgUrl,\r\n        uint256 _price,\r\n        uint256 _quantity\r\n    ) public {\r\n        productList[productCount] = Product(\r\n            productCount,\r\n            _name,\r\n            _price,\r\n            _quantity,\r\n            _description,\r\n            _imgUrl,\r\n            0\r\n        );\r\n\r\n        productCount++;\r\n        emit ProductAdded(productCount, _name);\r\n    }\r\n\r\n    function getProduct(uint256 prodID) public view returns (Product memory) {\r\n        require(\r\n            prodID >= 0 && prodID <= productCount,\r\n            \"Store: getProduct - Invalid product ID\"\r\n        );\r\n\r\n        // emit ProductReturned(prodID, productList[prodID].name);\r\n        return productList[prodID];\r\n    }\r\n\r\n    function getProductList() public view returns (Product[] memory) {\r\n        Product[] memory _products = new Product[](productCount);\r\n\r\n        for (uint256 i = 0; i < productCount; i++) {\r\n            _products[i] = productList[i];\r\n        }\r\n\r\n        // emit ProductsReturned(_products);\r\n        return _products;\r\n    }\r\n\r\n    function addReview(\r\n        uint256 _productId,\r\n        uint256 _rating,\r\n        string memory _review\r\n    ) public {\r\n        require(\r\n            userList[msg.sender].isUser,\r\n            \"Store: authenticateUser - User does not exist\"\r\n        );\r\n\r\n        require(\r\n            _rating > 0 && _rating < 6,\r\n            \"Store: addReview - Rating should be between 1 and 5\"\r\n        );\r\n\r\n        require(\r\n            _productId >= 0 && _productId <= productCount,\r\n            \"Store: addReview - Product does not exist\"\r\n        );\r\n\r\n        require(\r\n            productList[_productId].id == _productId,\r\n            \"Store: addReview - Product does not exist\"\r\n        );\r\n\r\n        reviewList[_productId][productList[_productId].reviewCount] = Review(\r\n            msg.sender,\r\n            _rating,\r\n            _review\r\n        );\r\n\r\n        productList[_productId].reviewCount++;\r\n\r\n        emit ReviewAdded(\r\n            productList[_productId].reviewCount - 1,\r\n            _review,\r\n            _rating\r\n        );\r\n    }\r\n\r\n    function getReviews(uint256 _productId)\r\n        public\r\n        view\r\n        returns (Review[] memory)\r\n    {\r\n        require(\r\n            _productId >= 0 && _productId <= productCount,\r\n            \"Store: getReviews - Product does not exist\"\r\n        );\r\n\r\n        Review[] memory reviews = new Review[](\r\n            productList[_productId].reviewCount\r\n        );\r\n\r\n        for (uint256 i = 0; i < productList[_productId].reviewCount; i++) {\r\n            reviews[i] = reviewList[_productId][i];\r\n        }\r\n\r\n        // emit ReviewsReturned(reviews);\r\n        return reviews;\r\n    }\r\n\r\n    function addOrder(\r\n        OrderProduct[] memory _products,\r\n        string memory _shippingDet\r\n    ) public payable {\r\n        require(\r\n            userList[msg.sender].isUser,\r\n            \"Store: authenticateUser - User does not exist\"\r\n        );\r\n\r\n        // require(\r\n        //     msg.value > msg.sender.balance,\r\n        //     \"Store: addOrder - Insufficient funds in wallet\"\r\n        // );\r\n\r\n        for (uint256 i = 0; i < _products.length; i++) {\r\n            require(\r\n                _products[i].id >= 0 && _products[i].id <= productCount,\r\n                \"Store: addOrder - Product does not exist\"\r\n            );\r\n\r\n            require(\r\n                productList[_products[i].id].id == _products[i].id,\r\n                \"Store: addOrder - Product does not exist\"\r\n            );\r\n\r\n            require(\r\n                productList[_products[i].id].quantity > 0,\r\n                \"Store: addOrder - Product out of stock\"\r\n            );\r\n\r\n            require(\r\n                _products[i].quantity > 0,\r\n                \"Store: addOrder - Invalid quantity\"\r\n            );\r\n        }\r\n\r\n        uint256 eth = 10**18;\r\n        uint256 total = 0;\r\n\r\n        for (uint256 i = 0; i < _products.length; i++) {\r\n            productList[_products[i].id].quantity -= _products[i].quantity;\r\n            total += (productList[_products[i].id].price * eth);\r\n\r\n            orderProductList[msg.sender][userList[msg.sender].orderCount][\r\n                i\r\n            ] = Product(\r\n                _products[i].id,\r\n                productList[_products[i].id].name,\r\n                productList[_products[i].id].price,\r\n                _products[i].quantity,\r\n                productList[_products[i].id].description,\r\n                productList[_products[i].id].imgUrl,\r\n                productList[_products[i].id].reviewCount\r\n            );\r\n        }\r\n\r\n        // require(msg.value >= total, \"Store: addOrder - Insufficient funds\");\r\n\r\n        orderList[msg.sender][userList[msg.sender].orderCount] = Order(\r\n            userList[msg.sender].orderCount,\r\n            total,\r\n            _shippingDet,\r\n            _products.length\r\n        );\r\n\r\n        emit OrderPlaced(\r\n            msg.sender,\r\n            userList[msg.sender].orderCount,\r\n            address(this).balance\r\n        );\r\n\r\n        userList[msg.sender].orderCount++;\r\n    }\r\n\r\n    function getOrders() public view returns (Order[] memory) {\r\n        Order[] memory _orders = new Order[](userList[msg.sender].orderCount);\r\n\r\n        for (uint256 i = 0; i < userList[msg.sender].orderCount; i++) {\r\n            _orders[i] = orderList[msg.sender][i];\r\n        }\r\n\r\n        // emit OrdersReturned(_orders);\r\n        return _orders;\r\n    }\r\n\r\n    function getOrder(uint256 _orderID) public view returns (Order memory) {\r\n        return orderList[msg.sender][_orderID];\r\n    }\r\n}\r\n",
  "sourcePath": "E:\\Semester 7\\Blockchain and Cryptography\\Project\\Blockchain-MERN-Ecommerce\\solidity\\contracts\\Store.sol",
  "compiler": {
    "name": "solc",
    "version": "0.5.16+commit.9c3226ce.Emscripten.clang"
  },
  "schemaVersion": "3.4.10",
  "updatedAt": "2022-12-05T17:23:53.263Z",
  "networkType": "ethereum",
  "devdoc": {
    "methods": {}
  },
  "userdoc": {
    "methods": {}
  }
}